1CREATION DATE: 20221221CREATION TIME:   1020DEPOSIT DATE(S) FROM:   20221220 TO DATE :  20221220                                           
2FI007020221220200111842001SERVICE BC BURNS LAKE                   000000055831   000000000000 000000055831 0010002301969I002350820         
2FI007020221220200161658001SERVICE BC COURTENAY                    000001222290   000000000000 000001222290 0010002301969I002350820         
70000020000001278121                                                           