1CREATION DATE: 20221221CREATION TIME:   1020DEPOSIT DATE(S) FROM:   20221220 TO DATE :  20221220                                           
2FI007020221220200111842001SERVICE BC BURNS LAKE                   000000055831   000000000000 000000055831 0010002301969I002350820         
2FI007020221220200161658001SERVICE BC COURTENAY                    000001222290   000000000000 000001222290 0010002301969I002350820         
2FI007020221220200161700001SERVICE BC COURTENAY                    000000318000   000000000000 000000318000 0010002301969I002350820         
2FI007020221220200181508001SERVICE BC CRESTON                      000000293330   000000000000 000000293330 0010002301969I002350820         
2FI007020221220200181509001SERVICE BC CRESTON                      000000044380   000000000000 000000044380 0010002301969I002350820         
2FI007020221220200181510001SERVICE BC CRESTON                      000000004040   000000000000 000000004040 0010002301969I002350820         
2FI007020221220200231135001SERVICE BC DAWSON CREEK                 000000008200   000000000000 000000008200 0010002301969I002350820         
2FI007020221220200231136001SERVICE BC DAWSON CREEK                 000000477274   000000000000 000000477274 0010002301969I002350820         
2FI007020221220200231137001SERVICE BC DAWSON CREEK                 000002607934   000000000000 000002607934 0010002301969I002350820         
2FI007020221220200231138001SERVICE BC DAWSON CREEK                 000000039886   000000000000 000000039886 0010002301969I002350820         
2FI007020221220200231138002SERVICE BC DAWSON CREEK                 000000199069   000000000000 000000199069 0010002301969I002350820         
2FI007020221220200231139001SERVICE BC DAWSON CREEK                 000000222479   000000000000 000000222479 0010002301969I002350820         
2FI007020221220200671438001SERVICE BC POWELL RIVER                 000000025000   000000000000 000000025000 0010002301969I002350820         
2FI007020221220200671438002SERVICE BC POWELL RIVER                 000000883439   000000000000 000000883439 0010002301969I002350820         
2FI007020221220200701216001SERVICE BC PRINCETON                    000000110769   000000000000 000000110769 0010002301969I002350820         
2FI007020221220200911506001SERVICE BC VALEMOUNT                    000000010478   000000000000 000000010478 0010002301969I002350820         
2FI007020221220200911509001SERVICE BC VALEMOUNT                    000000083233   000000000000 000000083233 0010002301969I002350820         
2FI007020221220200911509002SERVICE BC VALEMOUNT                    000001394373   000000000000 000001394373 0010002301969I002350820         
70000180000008000005                                                           