1CREATION DATE: 20230309CREATION TIME:   1020DEPOSIT DATE(S) FROM:   20230308 TO DATE :  20230308                                           
2FI007020230308200921411001SERVICE BC VANDERHOOF                   000000003150-  000000000000-000000003150- 0010002302543I002365257         
2FI007020230308200921412001SERVICE BC VANDERHOOF                   000000023000   000000000000 000000023000 0010002302543I002365257         
2FI007020230308201010000001SERVICE BC SECHELT                      000001097080   000000000000 000001097080 0003002302540I002365073         
70000200000004138632                                                                                                                        
